:020000000D28C9
:10000800DE00030E8312A6000408A7000A08A80051
:100018001A280E286C20A0006D20A1006E20A200D6
:100028006F20A3007020A4008301662805302406F1
:10003800031D1F2820282228A401A40A0B1C2528F8
:1000480026284928851A29282A28492837282008AF
:10005800850045282108850045282208850045286F
:100068002308850045282408013A03192B28033A58
:1000780003192E28013A03193128073A031934289D
:1000880045280130A5002508A4070B1028088A0078
:1000980027088400260E8300DE0E5E0E09008316F4
:1000A8009F0183129F010730990083169901203020
:1000B80085000F3081002030960083128501831659
:1000C800951608005320A0308B000B106A280D28C5
:0A00D8000134023404341034013402
:02400E009431EB
:00000001FF
